{
  "transactions": [
    {
      "hash": "0xdf07c39ff4f86ee4d271a6457f97ca9ad2778480f6f3b4c2886335d6b464ba4f",
      "transactionType": "CALL",
      "contractName": null,
      "contractAddress": "0xa31ca1c5b81f560b0c415327d9641b55cb0291e4",
      "function": "mint(string)",
      "arguments": [
        "https://ipfs.io/ipfs/bafybeid2mns5enc4biisgodwpponvaxbx6fp2hpt2aj4wwedx5dak5cdqy/carti.json"
      ],
      "transaction": {
        "from": "0xf967234ac7e2b2c309d5820c46c549891d509948",
        "to": "0xa31ca1c5b81f560b0c415327d9641b55cb0291e4",
        "gas": "0x41006",
        "value": "0x0",
        "input": "0xd85d3d270000000000000000000000000000000000000000000000000000000000000020000000000000000000000000000000000000000000000000000000000000005b68747470733a2f2f697066732e696f2f697066732f6261667962656964326d6e7335656e633462696973676f647770706f6e76617862783666703268707432616a3477776564783564616b35636471792f63617274692e6a736f6e0000000000",
        "nonce": "0x14",
        "chainId": "0xaa36a7"
      },
      "additionalContracts": [],
      "isFixedGasLimit": false
    },
    {
      "hash": "0x99dcfa29a6d448446a6db78bb916acb42a955b4e3dfc3ee7577f41fe87ad1870",
      "transactionType": "CALL",
      "contractName": null,
      "contractAddress": "0xa31ca1c5b81f560b0c415327d9641b55cb0291e4",
      "function": "mint(string)",
      "arguments": [
        "https://ipfs.io/ipfs/bafybeid2mns5enc4biisgodwpponvaxbx6fp2hpt2aj4wwedx5dak5cdqy/lone.json"
      ],
      "transaction": {
        "from": "0xf967234ac7e2b2c309d5820c46c549891d509948",
        "to": "0xa31ca1c5b81f560b0c415327d9641b55cb0291e4",
        "gas": "0x31da6",
        "value": "0x0",
        "input": "0xd85d3d270000000000000000000000000000000000000000000000000000000000000020000000000000000000000000000000000000000000000000000000000000005a68747470733a2f2f697066732e696f2f697066732f6261667962656964326d6e7335656e633462696973676f647770706f6e76617862783666703268707432616a3477776564783564616b35636471792f6c6f6e652e6a736f6e000000000000",
        "nonce": "0x15",
        "chainId": "0xaa36a7"
      },
      "additionalContracts": [],
      "isFixedGasLimit": false
    },
    {
      "hash": "0x3fdc089b2ab31fea364178cf0235daf3dd42f62fcab232147c827ca46292d26d",
      "transactionType": "CALL",
      "contractName": null,
      "contractAddress": "0xa31ca1c5b81f560b0c415327d9641b55cb0291e4",
      "function": "mint(string)",
      "arguments": [
        "https://ipfs.io/ipfs/bafybeid2mns5enc4biisgodwpponvaxbx6fp2hpt2aj4wwedx5dak5cdqy/ken.json"
      ],
      "transaction": {
        "from": "0xf967234ac7e2b2c309d5820c46c549891d509948",
        "to": "0xa31ca1c5b81f560b0c415327d9641b55cb0291e4",
        "gas": "0x34c81",
        "value": "0x0",
        "input": "0xd85d3d270000000000000000000000000000000000000000000000000000000000000020000000000000000000000000000000000000000000000000000000000000005968747470733a2f2f697066732e696f2f697066732f6261667962656964326d6e7335656e633462696973676f647770706f6e76617862783666703268707432616a3477776564783564616b35636471792f6b656e2e6a736f6e00000000000000",
        "nonce": "0x16",
        "chainId": "0xaa36a7"
      },
      "additionalContracts": [],
      "isFixedGasLimit": false
    }
  ],
  "receipts": [
    {
      "status": "0x1",
      "cumulativeGasUsed": "0xcbac53",
      "logs": [
        {
          "address": "0xa31ca1c5b81f560b0c415327d9641b55cb0291e4",
          "topics": [
            "0xddf252ad1be2c89b69c2b068fc378daa952ba7f163c4a11628f55a4df523b3ef",
            "0x0000000000000000000000000000000000000000000000000000000000000000",
            "0x000000000000000000000000f967234ac7e2b2c309d5820c46c549891d509948",
            "0x0000000000000000000000000000000000000000000000000000000000000000"
          ],
          "data": "0x",
          "blockHash": "0xc08384ca8cd6ce68cdcddcb6e179ae6214bea0930408503a401230b950d6ecd9",
          "blockNumber": "0x72dca6",
          "transactionHash": "0xdf07c39ff4f86ee4d271a6457f97ca9ad2778480f6f3b4c2886335d6b464ba4f",
          "transactionIndex": "0x2c",
          "logIndex": "0x89",
          "removed": false
        }
      ],
      "logsBloom": "0x00000000000000000000000000000000000000000000000000000000000000000000000000000000000000000000000000000000000000000000000000000000000000000000000000000008000000000000000000000000000000000008000000000000020000000000000000000800000000000000000000000018000000000000000000000000000000000008000000000000000000200000000000000000000000000000000000000000000000000000000000000000000000000000000100000002000000000000000000000000000000000000000000000000000020000000000000000000000000000000040000000000000000000000000000000000",
      "type": "0x2",
      "transactionHash": "0xdf07c39ff4f86ee4d271a6457f97ca9ad2778480f6f3b4c2886335d6b464ba4f",
      "transactionIndex": "0x2c",
      "blockHash": "0xc08384ca8cd6ce68cdcddcb6e179ae6214bea0930408503a401230b950d6ecd9",
      "blockNumber": "0x72dca6",
      "gasUsed": "0x2c721",
      "effectiveGasPrice": "0x28bbe22d",
      "from": "0xf967234ac7e2b2c309d5820c46c549891d509948",
      "to": "0xa31ca1c5b81f560b0c415327d9641b55cb0291e4",
      "contractAddress": null
    },
    {
      "status": "0x1",
      "cumulativeGasUsed": "0x10073fd",
      "logs": [
        {
          "address": "0xa31ca1c5b81f560b0c415327d9641b55cb0291e4",
          "topics": [
            "0xddf252ad1be2c89b69c2b068fc378daa952ba7f163c4a11628f55a4df523b3ef",
            "0x0000000000000000000000000000000000000000000000000000000000000000",
            "0x000000000000000000000000f967234ac7e2b2c309d5820c46c549891d509948",
            "0x0000000000000000000000000000000000000000000000000000000000000001"
          ],
          "data": "0x",
          "blockHash": "0xc08384ca8cd6ce68cdcddcb6e179ae6214bea0930408503a401230b950d6ecd9",
          "blockNumber": "0x72dca6",
          "transactionHash": "0x99dcfa29a6d448446a6db78bb916acb42a955b4e3dfc3ee7577f41fe87ad1870",
          "transactionIndex": "0x3b",
          "logIndex": "0xa7",
          "removed": false
        }
      ],
      "logsBloom": "0x00000000000000000000000000000000000000000000000000000000000000000000000000000000000000000000000000000000000000000000000000040000000000000000000000000008000000000000000000040000000000000008000000000000020000000000000000000800000000000000000000000018000000000000000000000000000000000008000000000000000000200000000000000000000000000000000000000000000000000000000000000000000000000000000100000002000000000000000000000000000000000000000000000000000060000000000000000000000000000000040000000000000000000000000000000000",
      "type": "0x2",
      "transactionHash": "0x99dcfa29a6d448446a6db78bb916acb42a955b4e3dfc3ee7577f41fe87ad1870",
      "transactionIndex": "0x3b",
      "blockHash": "0xc08384ca8cd6ce68cdcddcb6e179ae6214bea0930408503a401230b950d6ecd9",
      "blockNumber": "0x72dca6",
      "gasUsed": "0x2417d",
      "effectiveGasPrice": "0x28bbe22d",
      "from": "0xf967234ac7e2b2c309d5820c46c549891d509948",
      "to": "0xa31ca1c5b81f560b0c415327d9641b55cb0291e4",
      "contractAddress": null
    },
    {
      "status": "0x1",
      "cumulativeGasUsed": "0x1031cf3",
      "logs": [
        {
          "address": "0xa31ca1c5b81f560b0c415327d9641b55cb0291e4",
          "topics": [
            "0xddf252ad1be2c89b69c2b068fc378daa952ba7f163c4a11628f55a4df523b3ef",
            "0x0000000000000000000000000000000000000000000000000000000000000000",
            "0x000000000000000000000000f967234ac7e2b2c309d5820c46c549891d509948",
            "0x0000000000000000000000000000000000000000000000000000000000000002"
          ],
          "data": "0x",
          "blockHash": "0xc08384ca8cd6ce68cdcddcb6e179ae6214bea0930408503a401230b950d6ecd9",
          "blockNumber": "0x72dca6",
          "transactionHash": "0x3fdc089b2ab31fea364178cf0235daf3dd42f62fcab232147c827ca46292d26d",
          "transactionIndex": "0x3d",
          "logIndex": "0xa9",
          "removed": false
        }
      ],
      "logsBloom": "0x04000000000000000000000000000000000000000000000000000000000000000000000000000000000000000000000000000000000000000000000000000000000000000000000000000008000000000000000000000000000000000008000000000000020000000000000000000800000000000000000000000018000000000000000000000000000000000008000000000000000000200000000000000000000000000000000000000100000000000000000000000000000000000000000100000002000000000000000000000000000000000000000000000000000020000000000000000000000000000000040000000000008000000000000000000000",
      "type": "0x2",
      "transactionHash": "0x3fdc089b2ab31fea364178cf0235daf3dd42f62fcab232147c827ca46292d26d",
      "transactionIndex": "0x3d",
      "blockHash": "0xc08384ca8cd6ce68cdcddcb6e179ae6214bea0930408503a401230b950d6ecd9",
      "blockNumber": "0x72dca6",
      "gasUsed": "0x24171",
      "effectiveGasPrice": "0x28bbe22d",
      "from": "0xf967234ac7e2b2c309d5820c46c549891d509948",
      "to": "0xa31ca1c5b81f560b0c415327d9641b55cb0291e4",
      "contractAddress": null
    }
  ],
  "libraries": [],
  "pending": [],
  "returns": {},
  "timestamp": 1737314638,
  "chain": 11155111,
  "commit": "28b0801"
}