{
  "transactions": [
    {
      "hash": "0xb6975e6329f83560b8e6facd4d91d211acb4c87625e6f2a11ee1a24108fbad32",
      "transactionType": "CALL",
      "contractName": null,
      "contractAddress": "0x607f93be682259aad4ecc4059960441611260157",
      "function": "mint(string)",
      "arguments": [
        "ipfs://QmcLqeRY58u3R2rXkATTARsdCZJeK2QvQzVFL5r4DTXdQS"
      ],
      "transaction": {
        "from": "0xf967234ac7e2b2c309d5820c46c549891d509948",
        "to": "0x607f93be682259aad4ecc4059960441611260157",
        "gas": "0x38de9",
        "value": "0x0",
        "input": "0xd85d3d2700000000000000000000000000000000000000000000000000000000000000200000000000000000000000000000000000000000000000000000000000000035697066733a2f2f516d634c7165525935387533523272586b41545441527364435a4a654b325176517a56464c3572344454586451530000000000000000000000",
        "nonce": "0xb",
        "chainId": "0xaa36a7"
      },
      "additionalContracts": [],
      "isFixedGasLimit": false
    },
    {
      "hash": "0x8f3f57786cd2e1f832f5a499d20e77694b75f970bc49d0da81f406ac037c5d6c",
      "transactionType": "CALL",
      "contractName": null,
      "contractAddress": "0x607f93be682259aad4ecc4059960441611260157",
      "function": "mint(string)",
      "arguments": [
        "ipfs://QmWEcxAEbz2ghhtHk5a4TYxdkBGazNrcv8aUcA2rd7oums"
      ],
      "transaction": {
        "from": "0xf967234ac7e2b2c309d5820c46c549891d509948",
        "to": "0x607f93be682259aad4ecc4059960441611260157",
        "gas": "0x2ca88",
        "value": "0x0",
        "input": "0xd85d3d2700000000000000000000000000000000000000000000000000000000000000200000000000000000000000000000000000000000000000000000000000000035697066733a2f2f516d574563784145627a3267686874486b356134545978646b4247617a4e7263763861556341327264376f756d730000000000000000000000",
        "nonce": "0xc",
        "chainId": "0xaa36a7"
      },
      "additionalContracts": [],
      "isFixedGasLimit": false
    },
    {
      "hash": "0xd80dee154400bc7db3fc9d09843574ea27b5c9adefc3dda5dd44c2eb1119191e",
      "transactionType": "CALL",
      "contractName": null,
      "contractAddress": "0x607f93be682259aad4ecc4059960441611260157",
      "function": "mint(string)",
      "arguments": [
        "ipfs://QmbdbwLBT331jzegWGTKgRvY57oEhMS1AVc1nt8BGCX5E7"
      ],
      "transaction": {
        "from": "0xf967234ac7e2b2c309d5820c46c549891d509948",
        "to": "0x607f93be682259aad4ecc4059960441611260157",
        "gas": "0x2ca88",
        "value": "0x0",
        "input": "0xd85d3d2700000000000000000000000000000000000000000000000000000000000000200000000000000000000000000000000000000000000000000000000000000035697066733a2f2f516d626462774c42543333316a7a65675747544b6752765935376f45684d5331415663316e7438424743583545370000000000000000000000",
        "nonce": "0xd",
        "chainId": "0xaa36a7"
      },
      "additionalContracts": [],
      "isFixedGasLimit": false
    },
    {
      "hash": "0xa741cd999cc92584e5672935646fa46c4291b343429c91846a2eb8de0a2f5714",
      "transactionType": "CALL",
      "contractName": null,
      "contractAddress": "0x607f93be682259aad4ecc4059960441611260157",
      "function": "mint(string)",
      "arguments": [
        "ipfs://QmTWxyhdkXhFCeXBe9WVrrXfoxrxmGBwLxiFdkwDTaY2NT"
      ],
      "transaction": {
        "from": "0xf967234ac7e2b2c309d5820c46c549891d509948",
        "to": "0x607f93be682259aad4ecc4059960441611260157",
        "gas": "0x2ca88",
        "value": "0x0",
        "input": "0xd85d3d2700000000000000000000000000000000000000000000000000000000000000200000000000000000000000000000000000000000000000000000000000000035697066733a2f2f516d5457787968646b5868464365584265395756727258666f7872786d4742774c786946646b7744546159324e540000000000000000000000",
        "nonce": "0xe",
        "chainId": "0xaa36a7"
      },
      "additionalContracts": [],
      "isFixedGasLimit": false
    },
    {
      "hash": "0x8c8851e23c4d1cc1397a9ead67b5c3f1b0e0c5426ad0ef58f39acd76ff8cebb3",
      "transactionType": "CALL",
      "contractName": null,
      "contractAddress": "0x607f93be682259aad4ecc4059960441611260157",
      "function": "mint(string)",
      "arguments": [
        "ipfs://QmPCrdMs6V67y8U33KnYLw178mcca86Q2izVHDDmkpxVLi"
      ],
      "transaction": {
        "from": "0xf967234ac7e2b2c309d5820c46c549891d509948",
        "to": "0x607f93be682259aad4ecc4059960441611260157",
        "gas": "0x2ca88",
        "value": "0x0",
        "input": "0xd85d3d2700000000000000000000000000000000000000000000000000000000000000200000000000000000000000000000000000000000000000000000000000000035697066733a2f2f516d504372644d733656363779385533334b6e594c773137386d63636138365132697a564844446d6b7078564c690000000000000000000000",
        "nonce": "0xf",
        "chainId": "0xaa36a7"
      },
      "additionalContracts": [],
      "isFixedGasLimit": false
    },
    {
      "hash": "0x6aab700e4e2bcd1cd516afcdc522b64baffc9d2b87bd162bf19386745c3adfda",
      "transactionType": "CALL",
      "contractName": null,
      "contractAddress": "0x607f93be682259aad4ecc4059960441611260157",
      "function": "mint(string)",
      "arguments": [
        "ipfs://Qmck9nArAUxBVCM2KV5nKs5bHokaGSXYJjDcdCdSCd3qsR"
      ],
      "transaction": {
        "from": "0xf967234ac7e2b2c309d5820c46c549891d509948",
        "to": "0x607f93be682259aad4ecc4059960441611260157",
        "gas": "0x2ca88",
        "value": "0x0",
        "input": "0xd85d3d2700000000000000000000000000000000000000000000000000000000000000200000000000000000000000000000000000000000000000000000000000000035697066733a2f2f516d636b396e41724155784256434d324b56356e4b733562486f6b61475358594a6a4463644364534364337173520000000000000000000000",
        "nonce": "0x10",
        "chainId": "0xaa36a7"
      },
      "additionalContracts": [],
      "isFixedGasLimit": false
    },
    {
      "hash": "0xaed0f1b716055c3218727381af7c9ac32ddc8f0989f90fd63fdc8ac6215055c6",
      "transactionType": "CALL",
      "contractName": null,
      "contractAddress": "0x607f93be682259aad4ecc4059960441611260157",
      "function": "mint(string)",
      "arguments": [
        "ipfs://QmZ62d74hD8TrxFYH8C1YoE1M2Qud7TnMpvwc7qAZR8wHi"
      ],
      "transaction": {
        "from": "0xf967234ac7e2b2c309d5820c46c549891d509948",
        "to": "0x607f93be682259aad4ecc4059960441611260157",
        "gas": "0x2ca88",
        "value": "0x0",
        "input": "0xd85d3d2700000000000000000000000000000000000000000000000000000000000000200000000000000000000000000000000000000000000000000000000000000035697066733a2f2f516d5a3632643734684438547278465948384331596f45314d3251756437546e4d707677633771415a52387748690000000000000000000000",
        "nonce": "0x11",
        "chainId": "0xaa36a7"
      },
      "additionalContracts": [],
      "isFixedGasLimit": false
    },
    {
      "hash": "0x56a6c4b0a51a173a3ecfbcf80a42708e4e712da1b480fdcbeb21a390d704dce0",
      "transactionType": "CALL",
      "contractName": null,
      "contractAddress": "0x607f93be682259aad4ecc4059960441611260157",
      "function": "mint(string)",
      "arguments": [
        "ipfs://QmSZQiB9zv7uh5BPP7vpXr1YR6Bp9fdKs57AZeARjq2DXU"
      ],
      "transaction": {
        "from": "0xf967234ac7e2b2c309d5820c46c549891d509948",
        "to": "0x607f93be682259aad4ecc4059960441611260157",
        "gas": "0x2ca88",
        "value": "0x0",
        "input": "0xd85d3d2700000000000000000000000000000000000000000000000000000000000000200000000000000000000000000000000000000000000000000000000000000035697066733a2f2f516d535a516942397a763775683542505037767058723159523642703966644b733537415a6541526a71324458550000000000000000000000",
        "nonce": "0x12",
        "chainId": "0xaa36a7"
      },
      "additionalContracts": [],
      "isFixedGasLimit": false
    }
  ],
  "receipts": [
    {
      "status": "0x1",
      "cumulativeGasUsed": "0xdf12cc",
      "logs": [
        {
          "address": "0x607f93be682259aad4ecc4059960441611260157",
          "topics": [
            "0xddf252ad1be2c89b69c2b068fc378daa952ba7f163c4a11628f55a4df523b3ef",
            "0x0000000000000000000000000000000000000000000000000000000000000000",
            "0x000000000000000000000000f967234ac7e2b2c309d5820c46c549891d509948",
            "0x0000000000000000000000000000000000000000000000000000000000000000"
          ],
          "data": "0x",
          "blockHash": "0x353f03618def38e7a35a61ef0005a278be104231757873ff77efb499ad4fb8a4",
          "blockNumber": "0x72d953",
          "transactionHash": "0xb6975e6329f83560b8e6facd4d91d211acb4c87625e6f2a11ee1a24108fbad32",
          "transactionIndex": "0x7d",
          "logIndex": "0xcc",
          "removed": false
        }
      ],
      "logsBloom": "0x00000000000000000000000000000000000000000000000000000000000000000000000000000000000000000000000000000000000000000000000001000000000000000000000000000008000000000000000000000000000000000000000000000000020000000000000000000800000000000000000000000058000000000000000000000000000000040000000000000000000000200000000000000000000000000000000000000000000000000000000000000000000000000000000000000002000000000000000000000000000000000000000000000000000020000000000000000000000000000000040000000000000000000000000000000000",
      "type": "0x2",
      "transactionHash": "0xb6975e6329f83560b8e6facd4d91d211acb4c87625e6f2a11ee1a24108fbad32",
      "transactionIndex": "0x7d",
      "blockHash": "0x353f03618def38e7a35a61ef0005a278be104231757873ff77efb499ad4fb8a4",
      "blockNumber": "0x72d953",
      "gasUsed": "0x26e2a",
      "effectiveGasPrice": "0x13ef91da",
      "from": "0xf967234ac7e2b2c309d5820c46c549891d509948",
      "to": "0x607f93be682259aad4ecc4059960441611260157",
      "contractAddress": null
    },
    {
      "status": "0x1",
      "cumulativeGasUsed": "0xe0fb5e",
      "logs": [
        {
          "address": "0x607f93be682259aad4ecc4059960441611260157",
          "topics": [
            "0xddf252ad1be2c89b69c2b068fc378daa952ba7f163c4a11628f55a4df523b3ef",
            "0x0000000000000000000000000000000000000000000000000000000000000000",
            "0x000000000000000000000000f967234ac7e2b2c309d5820c46c549891d509948",
            "0x0000000000000000000000000000000000000000000000000000000000000001"
          ],
          "data": "0x",
          "blockHash": "0x353f03618def38e7a35a61ef0005a278be104231757873ff77efb499ad4fb8a4",
          "blockNumber": "0x72d953",
          "transactionHash": "0x8f3f57786cd2e1f832f5a499d20e77694b75f970bc49d0da81f406ac037c5d6c",
          "transactionIndex": "0x7e",
          "logIndex": "0xcd",
          "removed": false
        }
      ],
      "logsBloom": "0x00000000000000000000000000000000000000000000000000000000000000000000000000000000000000000000000000000000000000000000000001040000000000000000000000000008000000000000000000040000000000000000000000000000020000000000000000000800000000000000000000000058000000000000000000000000000000040000000000000000000000200000000000000000000000000000000000000000000000000000000000000000000000000000000000000002000000000000000000000000000000000000000000000000000060000000000000000000000000000000040000000000000000000000000000000000",
      "type": "0x2",
      "transactionHash": "0x8f3f57786cd2e1f832f5a499d20e77694b75f970bc49d0da81f406ac037c5d6c",
      "transactionIndex": "0x7e",
      "blockHash": "0x353f03618def38e7a35a61ef0005a278be104231757873ff77efb499ad4fb8a4",
      "blockNumber": "0x72d953",
      "gasUsed": "0x1e892",
      "effectiveGasPrice": "0x13ef91da",
      "from": "0xf967234ac7e2b2c309d5820c46c549891d509948",
      "to": "0x607f93be682259aad4ecc4059960441611260157",
      "contractAddress": null
    },
    {
      "status": "0x1",
      "cumulativeGasUsed": "0xe2e3f0",
      "logs": [
        {
          "address": "0x607f93be682259aad4ecc4059960441611260157",
          "topics": [
            "0xddf252ad1be2c89b69c2b068fc378daa952ba7f163c4a11628f55a4df523b3ef",
            "0x0000000000000000000000000000000000000000000000000000000000000000",
            "0x000000000000000000000000f967234ac7e2b2c309d5820c46c549891d509948",
            "0x0000000000000000000000000000000000000000000000000000000000000002"
          ],
          "data": "0x",
          "blockHash": "0x353f03618def38e7a35a61ef0005a278be104231757873ff77efb499ad4fb8a4",
          "blockNumber": "0x72d953",
          "transactionHash": "0xd80dee154400bc7db3fc9d09843574ea27b5c9adefc3dda5dd44c2eb1119191e",
          "transactionIndex": "0x7f",
          "logIndex": "0xce",
          "removed": false
        }
      ],
      "logsBloom": "0x04000000000000000000000000000000000000000000000000000000000000000000000000000000000000000000000000000000000000000000000001000000000000000000000000000008000000000000000000000000000000000000000000000000020000000000000000000800000000000000000000000058000000000000000000000000000000040000000000000000000000200000000000000000000000000000000000000100000000000000000000000000000000000000000000000002000000000000000000000000000000000000000000000000000020000000000000000000000000000000040000000000008000000000000000000000",
      "type": "0x2",
      "transactionHash": "0xd80dee154400bc7db3fc9d09843574ea27b5c9adefc3dda5dd44c2eb1119191e",
      "transactionIndex": "0x7f",
      "blockHash": "0x353f03618def38e7a35a61ef0005a278be104231757873ff77efb499ad4fb8a4",
      "blockNumber": "0x72d953",
      "gasUsed": "0x1e892",
      "effectiveGasPrice": "0x13ef91da",
      "from": "0xf967234ac7e2b2c309d5820c46c549891d509948",
      "to": "0x607f93be682259aad4ecc4059960441611260157",
      "contractAddress": null
    },
    {
      "status": "0x1",
      "cumulativeGasUsed": "0xe4cc82",
      "logs": [
        {
          "address": "0x607f93be682259aad4ecc4059960441611260157",
          "topics": [
            "0xddf252ad1be2c89b69c2b068fc378daa952ba7f163c4a11628f55a4df523b3ef",
            "0x0000000000000000000000000000000000000000000000000000000000000000",
            "0x000000000000000000000000f967234ac7e2b2c309d5820c46c549891d509948",
            "0x0000000000000000000000000000000000000000000000000000000000000003"
          ],
          "data": "0x",
          "blockHash": "0x353f03618def38e7a35a61ef0005a278be104231757873ff77efb499ad4fb8a4",
          "blockNumber": "0x72d953",
          "transactionHash": "0xa741cd999cc92584e5672935646fa46c4291b343429c91846a2eb8de0a2f5714",
          "transactionIndex": "0x80",
          "logIndex": "0xcf",
          "removed": false
        }
      ],
      "logsBloom": "0x00000000000000000000000000000000000000000000000000000000000000000000000000000000000000000000000000000000020000000000000001000000000000000000000000000008000000000000000000000000000000000000000000000000020000000000000000000800000000000000000000000058000000000000000000000000000000040000000000000000000000200000000000000000000000000000000000000000000000000000000000800000000000000000400000000002000000000000000000000000000000000000000000000000000020000000000000000000000000000000040000000000000000000000000000000000",
      "type": "0x2",
      "transactionHash": "0xa741cd999cc92584e5672935646fa46c4291b343429c91846a2eb8de0a2f5714",
      "transactionIndex": "0x80",
      "blockHash": "0x353f03618def38e7a35a61ef0005a278be104231757873ff77efb499ad4fb8a4",
      "blockNumber": "0x72d953",
      "gasUsed": "0x1e892",
      "effectiveGasPrice": "0x13ef91da",
      "from": "0xf967234ac7e2b2c309d5820c46c549891d509948",
      "to": "0x607f93be682259aad4ecc4059960441611260157",
      "contractAddress": null
    },
    {
      "status": "0x1",
      "cumulativeGasUsed": "0xe6b514",
      "logs": [
        {
          "address": "0x607f93be682259aad4ecc4059960441611260157",
          "topics": [
            "0xddf252ad1be2c89b69c2b068fc378daa952ba7f163c4a11628f55a4df523b3ef",
            "0x0000000000000000000000000000000000000000000000000000000000000000",
            "0x000000000000000000000000f967234ac7e2b2c309d5820c46c549891d509948",
            "0x0000000000000000000000000000000000000000000000000000000000000004"
          ],
          "data": "0x",
          "blockHash": "0x353f03618def38e7a35a61ef0005a278be104231757873ff77efb499ad4fb8a4",
          "blockNumber": "0x72d953",
          "transactionHash": "0x8c8851e23c4d1cc1397a9ead67b5c3f1b0e0c5426ad0ef58f39acd76ff8cebb3",
          "transactionIndex": "0x81",
          "logIndex": "0xd0",
          "removed": false
        }
      ],
      "logsBloom": "0x00000000000000000000000000000000000000000000000000000000000000000000000000000000000000000000000000000000000000000000000001000000000000000000000000000008000000000000000000000000000000000000000008000000020000000000000000000800000000000000000000000058000000000000000000000000000000040000000000000000000000200000000000000000000000000000000000000000000000000000000000000000002000000000000000000002000000000000000000000000000000008000000000000000000020000000000000000000000000000000040000000000000000000000000000000000",
      "type": "0x2",
      "transactionHash": "0x8c8851e23c4d1cc1397a9ead67b5c3f1b0e0c5426ad0ef58f39acd76ff8cebb3",
      "transactionIndex": "0x81",
      "blockHash": "0x353f03618def38e7a35a61ef0005a278be104231757873ff77efb499ad4fb8a4",
      "blockNumber": "0x72d953",
      "gasUsed": "0x1e892",
      "effectiveGasPrice": "0x13ef91da",
      "from": "0xf967234ac7e2b2c309d5820c46c549891d509948",
      "to": "0x607f93be682259aad4ecc4059960441611260157",
      "contractAddress": null
    },
    {
      "status": "0x1",
      "cumulativeGasUsed": "0xe89da6",
      "logs": [
        {
          "address": "0x607f93be682259aad4ecc4059960441611260157",
          "topics": [
            "0xddf252ad1be2c89b69c2b068fc378daa952ba7f163c4a11628f55a4df523b3ef",
            "0x0000000000000000000000000000000000000000000000000000000000000000",
            "0x000000000000000000000000f967234ac7e2b2c309d5820c46c549891d509948",
            "0x0000000000000000000000000000000000000000000000000000000000000005"
          ],
          "data": "0x",
          "blockHash": "0x353f03618def38e7a35a61ef0005a278be104231757873ff77efb499ad4fb8a4",
          "blockNumber": "0x72d953",
          "transactionHash": "0x6aab700e4e2bcd1cd516afcdc522b64baffc9d2b87bd162bf19386745c3adfda",
          "transactionIndex": "0x82",
          "logIndex": "0xd1",
          "removed": false
        }
      ],
      "logsBloom": "0x00000000000000000000000000000000000000000000000000000000000000000000000000000000000000000000000000000000000000000000000001000000000010000000000000000008000000000000000000000000000000000000000000000000020000000000000000000800000000000000000000000058000000000000000000000000000000040000001000000800000000200000000000000000000000000000000000000000000000000000000000000000000000000000000000000002000000000000000000000000000000000000000000000000000020000000000000000000000000000000040000000000000000000000000000000000",
      "type": "0x2",
      "transactionHash": "0x6aab700e4e2bcd1cd516afcdc522b64baffc9d2b87bd162bf19386745c3adfda",
      "transactionIndex": "0x82",
      "blockHash": "0x353f03618def38e7a35a61ef0005a278be104231757873ff77efb499ad4fb8a4",
      "blockNumber": "0x72d953",
      "gasUsed": "0x1e892",
      "effectiveGasPrice": "0x13ef91da",
      "from": "0xf967234ac7e2b2c309d5820c46c549891d509948",
      "to": "0x607f93be682259aad4ecc4059960441611260157",
      "contractAddress": null
    },
    {
      "status": "0x1",
      "cumulativeGasUsed": "0xea8638",
      "logs": [
        {
          "address": "0x607f93be682259aad4ecc4059960441611260157",
          "topics": [
            "0xddf252ad1be2c89b69c2b068fc378daa952ba7f163c4a11628f55a4df523b3ef",
            "0x0000000000000000000000000000000000000000000000000000000000000000",
            "0x000000000000000000000000f967234ac7e2b2c309d5820c46c549891d509948",
            "0x0000000000000000000000000000000000000000000000000000000000000006"
          ],
          "data": "0x",
          "blockHash": "0x353f03618def38e7a35a61ef0005a278be104231757873ff77efb499ad4fb8a4",
          "blockNumber": "0x72d953",
          "transactionHash": "0xaed0f1b716055c3218727381af7c9ac32ddc8f0989f90fd63fdc8ac6215055c6",
          "transactionIndex": "0x83",
          "logIndex": "0xd2",
          "removed": false
        }
      ],
      "logsBloom": "0x00000000000000000000000000000000000000000000000000000000000000000000000000000000000000000000000000000000000400000000000001000000000000000000000000000008000000000000000000000000000000000000000000000000020000000000000000000800000000000000000000000058000000000000000400000000000000040000000000000000000000200000000000000000000000000000000000000000000000000000000000000000000000080000000000000002000000000000000000000000000000000000000000000000000020000000000000000000000000000000040000000000000000000000000000000000",
      "type": "0x2",
      "transactionHash": "0xaed0f1b716055c3218727381af7c9ac32ddc8f0989f90fd63fdc8ac6215055c6",
      "transactionIndex": "0x83",
      "blockHash": "0x353f03618def38e7a35a61ef0005a278be104231757873ff77efb499ad4fb8a4",
      "blockNumber": "0x72d953",
      "gasUsed": "0x1e892",
      "effectiveGasPrice": "0x13ef91da",
      "from": "0xf967234ac7e2b2c309d5820c46c549891d509948",
      "to": "0x607f93be682259aad4ecc4059960441611260157",
      "contractAddress": null
    },
    {
      "status": "0x1",
      "cumulativeGasUsed": "0xec6eca",
      "logs": [
        {
          "address": "0x607f93be682259aad4ecc4059960441611260157",
          "topics": [
            "0xddf252ad1be2c89b69c2b068fc378daa952ba7f163c4a11628f55a4df523b3ef",
            "0x0000000000000000000000000000000000000000000000000000000000000000",
            "0x000000000000000000000000f967234ac7e2b2c309d5820c46c549891d509948",
            "0x0000000000000000000000000000000000000000000000000000000000000007"
          ],
          "data": "0x",
          "blockHash": "0x353f03618def38e7a35a61ef0005a278be104231757873ff77efb499ad4fb8a4",
          "blockNumber": "0x72d953",
          "transactionHash": "0x56a6c4b0a51a173a3ecfbcf80a42708e4e712da1b480fdcbeb21a390d704dce0",
          "transactionIndex": "0x84",
          "logIndex": "0xd3",
          "removed": false
        }
      ],
      "logsBloom": "0x00000000000000000000000000000000000000000000000000000000000000000000000000000000000000000000000000001000000000000000000001000000000020000000000000000008000000000000000000000000000000000000000000000000020000000000000000000800000000000000000000000058000000000000000000000000000000040000000000000000000000200000000000000000000000000000000000000000000000000000000000000000000000000000000000000002000000000000000000000000000000000000000000000100000020000000000000000000000000000000040000000000000000000000000000000000",
      "type": "0x2",
      "transactionHash": "0x56a6c4b0a51a173a3ecfbcf80a42708e4e712da1b480fdcbeb21a390d704dce0",
      "transactionIndex": "0x84",
      "blockHash": "0x353f03618def38e7a35a61ef0005a278be104231757873ff77efb499ad4fb8a4",
      "blockNumber": "0x72d953",
      "gasUsed": "0x1e892",
      "effectiveGasPrice": "0x13ef91da",
      "from": "0xf967234ac7e2b2c309d5820c46c549891d509948",
      "to": "0x607f93be682259aad4ecc4059960441611260157",
      "contractAddress": null
    }
  ],
  "libraries": [],
  "pending": [],
  "returns": {},
  "timestamp": 1737304334,
  "chain": 11155111,
  "commit": "28b0801"
}